{
  "contractName": "Project",
  "abi": [
    {
      "constant": true,
      "inputs": [],
      "name": "creator",
      "outputs": [
        {
          "name": "",
          "type": "address"
        }
      ],
      "payable": false,
      "stateMutability": "view",
      "type": "function"
    },
    {
      "constant": true,
      "inputs": [],
      "name": "amountGoal",
      "outputs": [
        {
          "name": "",
          "type": "uint256"
        }
      ],
      "payable": false,
      "stateMutability": "view",
      "type": "function"
    },
    {
      "constant": true,
      "inputs": [],
      "name": "donateBalance",
      "outputs": [
        {
          "name": "",
          "type": "uint256"
        }
      ],
      "payable": false,
      "stateMutability": "view",
      "type": "function"
    },
    {
      "constant": true,
      "inputs": [
        {
          "name": "",
          "type": "address"
        }
      ],
      "name": "indexes",
      "outputs": [
        {
          "name": "",
          "type": "uint256"
        }
      ],
      "payable": false,
      "stateMutability": "view",
      "type": "function"
    },
    {
      "constant": true,
      "inputs": [
        {
          "name": "",
          "type": "address"
        }
      ],
      "name": "contributions_percentage",
      "outputs": [
        {
          "name": "",
          "type": "uint256"
        }
      ],
      "payable": false,
      "stateMutability": "view",
      "type": "function"
    },
    {
      "constant": true,
      "inputs": [],
      "name": "raiseBy",
      "outputs": [
        {
          "name": "",
          "type": "uint256"
        }
      ],
      "payable": false,
      "stateMutability": "view",
      "type": "function"
    },
    {
      "constant": true,
      "inputs": [],
      "name": "rewardbased",
      "outputs": [
        {
          "name": "",
          "type": "bool"
        }
      ],
      "payable": false,
      "stateMutability": "view",
      "type": "function"
    },
    {
      "constant": true,
      "inputs": [
        {
          "name": "",
          "type": "uint256"
        }
      ],
      "name": "contributors",
      "outputs": [
        {
          "name": "",
          "type": "address"
        }
      ],
      "payable": false,
      "stateMutability": "view",
      "type": "function"
    },
    {
      "constant": true,
      "inputs": [
        {
          "name": "",
          "type": "address"
        }
      ],
      "name": "contributions",
      "outputs": [
        {
          "name": "",
          "type": "uint256"
        }
      ],
      "payable": false,
      "stateMutability": "view",
      "type": "function"
    },
    {
      "constant": true,
      "inputs": [],
      "name": "title",
      "outputs": [
        {
          "name": "",
          "type": "string"
        }
      ],
      "payable": false,
      "stateMutability": "view",
      "type": "function"
    },
    {
      "constant": true,
      "inputs": [],
      "name": "completeAt",
      "outputs": [
        {
          "name": "",
          "type": "uint256"
        }
      ],
      "payable": false,
      "stateMutability": "view",
      "type": "function"
    },
    {
      "constant": true,
      "inputs": [],
      "name": "percent",
      "outputs": [
        {
          "name": "",
          "type": "uint256"
        }
      ],
      "payable": false,
      "stateMutability": "view",
      "type": "function"
    },
    {
      "constant": true,
      "inputs": [],
      "name": "description",
      "outputs": [
        {
          "name": "",
          "type": "string"
        }
      ],
      "payable": false,
      "stateMutability": "view",
      "type": "function"
    },
    {
      "constant": true,
      "inputs": [],
      "name": "rewardstatus",
      "outputs": [
        {
          "name": "",
          "type": "bool"
        }
      ],
      "payable": false,
      "stateMutability": "view",
      "type": "function"
    },
    {
      "constant": true,
      "inputs": [],
      "name": "currentmilestone",
      "outputs": [
        {
          "name": "",
          "type": "uint256"
        }
      ],
      "payable": false,
      "stateMutability": "view",
      "type": "function"
    },
    {
      "constant": true,
      "inputs": [],
      "name": "milestonestatus",
      "outputs": [
        {
          "name": "",
          "type": "bool"
        }
      ],
      "payable": false,
      "stateMutability": "view",
      "type": "function"
    },
    {
      "constant": true,
      "inputs": [],
      "name": "state",
      "outputs": [
        {
          "name": "",
          "type": "uint8"
        }
      ],
      "payable": false,
      "stateMutability": "view",
      "type": "function"
    },
    {
      "constant": true,
      "inputs": [],
      "name": "currentBalance",
      "outputs": [
        {
          "name": "",
          "type": "uint256"
        }
      ],
      "payable": false,
      "stateMutability": "view",
      "type": "function"
    },
    {
      "constant": true,
      "inputs": [],
      "name": "orggoalammount",
      "outputs": [
        {
          "name": "",
          "type": "uint256"
        }
      ],
      "payable": false,
      "stateMutability": "view",
      "type": "function"
    },
    {
      "constant": true,
      "inputs": [
        {
          "name": "",
          "type": "uint256"
        }
      ],
      "name": "listofmilestones",
      "outputs": [
        {
          "name": "",
          "type": "uint256"
        }
      ],
      "payable": false,
      "stateMutability": "view",
      "type": "function"
    },
    {
      "inputs": [
        {
          "name": "projectStarter",
          "type": "address"
        },
        {
          "name": "projectTitle",
          "type": "string"
        },
        {
          "name": "projectDesc",
          "type": "string"
        },
        {
          "name": "fundRaisingDeadline",
          "type": "uint256"
        },
        {
          "name": "goalAmount",
          "type": "uint256"
        },
        {
          "name": "reward",
          "type": "bool"
        },
        {
          "name": "milestone",
          "type": "uint256"
        }
      ],
      "payable": false,
      "stateMutability": "nonpayable",
      "type": "constructor"
    },
    {
      "anonymous": false,
      "inputs": [
        {
          "indexed": false,
          "name": "contributor",
          "type": "address"
        },
        {
          "indexed": false,
          "name": "amount",
          "type": "uint256"
        },
        {
          "indexed": false,
          "name": "currentTotal",
          "type": "uint256"
        }
      ],
      "name": "FundingReceived",
      "type": "event"
    },
    {
      "anonymous": false,
      "inputs": [
        {
          "indexed": false,
          "name": "recipient",
          "type": "address"
        }
      ],
      "name": "CreatorPaid",
      "type": "event"
    },
    {
      "constant": false,
      "inputs": [],
      "name": "contribute",
      "outputs": [],
      "payable": true,
      "stateMutability": "payable",
      "type": "function"
    },
    {
      "constant": false,
      "inputs": [],
      "name": "donate",
      "outputs": [],
      "payable": true,
      "stateMutability": "payable",
      "type": "function"
    },
    {
      "constant": false,
      "inputs": [],
      "name": "checkIfFundingCompleteOrExpired",
      "outputs": [],
      "payable": false,
      "stateMutability": "nonpayable",
      "type": "function"
    },
    {
      "constant": false,
      "inputs": [
        {
          "name": "val",
          "type": "uint256"
        },
        {
          "name": "dat",
          "type": "uint256"
        }
      ],
      "name": "updateMilestone",
      "outputs": [],
      "payable": false,
      "stateMutability": "nonpayable",
      "type": "function"
    },
    {
      "constant": false,
      "inputs": [],
      "name": "getRefund",
      "outputs": [
        {
          "name": "",
          "type": "bool"
        }
      ],
      "payable": false,
      "stateMutability": "nonpayable",
      "type": "function"
    },
    {
      "constant": false,
      "inputs": [],
      "name": "getReward",
      "outputs": [
        {
          "name": "",
          "type": "bool"
        }
      ],
      "payable": false,
      "stateMutability": "nonpayable",
      "type": "function"
    },
    {
      "constant": true,
      "inputs": [],
      "name": "getMilestones",
      "outputs": [
        {
          "name": "arrmilestones",
          "type": "uint256[]"
        }
      ],
      "payable": false,
      "stateMutability": "view",
      "type": "function"
    },
    {
      "constant": true,
      "inputs": [],
      "name": "getDetails",
      "outputs": [
        {
          "name": "projectStarter",
          "type": "address"
        },
        {
          "name": "projectTitle",
          "type": "string"
        },
        {
          "name": "projectDesc",
          "type": "string"
        },
        {
          "name": "deadline",
          "type": "uint256"
        },
        {
          "name": "currentState",
          "type": "uint8"
        },
        {
          "name": "currentAmount",
          "type": "uint256"
        },
        {
          "name": "goalAmount",
          "type": "uint256"
        },
        {
          "name": "reward",
          "type": "bool"
        },
        {
          "name": "rewardstate",
          "type": "bool"
        },
        {
          "name": "contributers",
          "type": "address[]"
        },
        {
          "name": "milestonevalue",
          "type": "uint256"
        },
        {
          "name": "milestonestate",
          "type": "bool"
        }
      ],
      "payable": false,
      "stateMutability": "view",
      "type": "function"
    }
  ],
  "bytecode": "0x60806040526000600a60026101000a81548160ff021916908360028111156200002457fe5b02179055503480156200003657600080fd5b506040516200259a3803806200259a833981018060405260e08110156200005c57600080fd5b810190808051906020019092919080516401000000008111156200007f57600080fd5b828101905060208101848111156200009657600080fd5b8151856001820283011164010000000082111715620000b457600080fd5b50509291906020018051640100000000811115620000d157600080fd5b82810190506020810184811115620000e857600080fd5b81518560018202830111640100000000821117156200010657600080fd5b505092919060200180519060200190929190805190602001909291908051906020019092919080519060200190929190505050866000806101000a81548173ffffffffffffffffffffffffffffffffffffffff021916908373ffffffffffffffffffffffffffffffffffffffff16021790555085600890805190602001906200019192919062000258565b508460099080519060200190620001aa92919062000258565b50826002819055508260018190555083600781905550600060048190555081600a60006101000a81548160ff0219169083151502179055506000600a60016101000a81548160ff02191690831515021790555080600f819055506001601060006101000a81548160ff02191690831515021790555060118190806001815401808255809150509060018203906000526020600020016000909192909190915055505050505050505062000307565b828054600181600116156101000203166002900490600052602060002090601f016020900481019282601f106200029b57805160ff1916838001178555620002cc565b82800160010185558215620002cc579182015b82811115620002cb578251825591602001919060010190620002ae565b5b509050620002db9190620002df565b5090565b6200030491905b8082111562000300576000816000905550600101620002e6565b5090565b90565b61228380620003176000396000f3fe6080604052600436106101d4576000357c01000000000000000000000000000000000000000000000000000000009004806370ba111311610109578063c19d93fb116100a7578063e7dc485c11610081578063e7dc485c1461081d578063eabff8de14610848578063ed88c68e14610897578063fbbf93a0146108a1576101d4565b8063c19d93fb146107af578063ce845d1d146107e8578063d7bb99ba14610813576101d4565b806389aca279116100e357806389aca279146106f7578063b2d5ae4414610726578063b3a20af114610755578063b584c76014610780576101d4565b806370ba1113146106255780637284e4161461065057806386f32586146106e0576101d4565b80633cb5d100116101765780634a79d50c116101505780634a79d50c146104b95780634c4cea5a146105495780634d791a1714610574578063629e4ed0146105b9576101d4565b80633cb5d100146103aa5780633d18b9121461042557806342e94c9014610454576101d4565b80632db78d93116101b25780632db78d93146102865780633609ed0b146102eb57806337f944cc146103505780633c1c37371461037b576101d4565b806302d05d3f146101d95780630785001c1461023057806318cd05d01461025b575b600080fd5b3480156101e557600080fd5b506101ee610a6a565b604051808273ffffffffffffffffffffffffffffffffffffffff1673ffffffffffffffffffffffffffffffffffffffff16815260200191505060405180910390f35b34801561023c57600080fd5b50610245610a8f565b6040518082815260200191505060405180910390f35b34801561026757600080fd5b50610270610a95565b6040518082815260200191505060405180910390f35b34801561029257600080fd5b506102d5600480360360208110156102a957600080fd5b81019080803573ffffffffffffffffffffffffffffffffffffffff169060200190929190505050610a9b565b6040518082815260200191505060405180910390f35b3480156102f757600080fd5b5061033a6004803603602081101561030e57600080fd5b81019080803573ffffffffffffffffffffffffffffffffffffffff169060200190929190505050610ab3565b6040518082815260200191505060405180910390f35b34801561035c57600080fd5b50610365610acb565b6040518082815260200191505060405180910390f35b34801561038757600080fd5b50610390610ad1565b604051808215151515815260200191505060405180910390f35b3480156103b657600080fd5b506103e3600480360360208110156103cd57600080fd5b8101908080359060200190929190505050610ae4565b604051808273ffffffffffffffffffffffffffffffffffffffff1673ffffffffffffffffffffffffffffffffffffffff16815260200191505060405180910390f35b34801561043157600080fd5b5061043a610b22565b604051808215151515815260200191505060405180910390f35b34801561046057600080fd5b506104a36004803603602081101561047757600080fd5b81019080803573ffffffffffffffffffffffffffffffffffffffff169060200190929190505050610e9a565b6040518082815260200191505060405180910390f35b3480156104c557600080fd5b506104ce610eb2565b6040518080602001828103825283818151815260200191508051906020019080838360005b8381101561050e5780820151818401526020810190506104f3565b50505050905090810190601f16801561053b5780820380516001836020036101000a031916815260200191505b509250505060405180910390f35b34801561055557600080fd5b5061055e610f50565b6040518082815260200191505060405180910390f35b34801561058057600080fd5b506105b76004803603604081101561059757600080fd5b810190808035906020019092919080359060200190929190505050610f56565b005b3480156105c557600080fd5b506105ce611033565b6040518080602001828103825283818151815260200191508051906020019060200280838360005b838110156106115780820151818401526020810190506105f6565b505050509050019250505060405180910390f35b34801561063157600080fd5b5061063a61108b565b6040518082815260200191505060405180910390f35b34801561065c57600080fd5b50610665611091565b6040518080602001828103825283818151815260200191508051906020019080838360005b838110156106a557808201518184015260208101905061068a565b50505050905090810190601f1680156106d25780820380516001836020036101000a031916815260200191505b509250505060405180910390f35b3480156106ec57600080fd5b506106f561112f565b005b34801561070357600080fd5b5061070c611202565b604051808215151515815260200191505060405180910390f35b34801561073257600080fd5b5061073b611215565b604051808215151515815260200191505060405180910390f35b34801561076157600080fd5b5061076a61149a565b6040518082815260200191505060405180910390f35b34801561078c57600080fd5b506107956114a0565b604051808215151515815260200191505060405180910390f35b3480156107bb57600080fd5b506107c46114b3565b604051808260028111156107d457fe5b60ff16815260200191505060405180910390f35b3480156107f457600080fd5b506107fd6114c6565b6040518082815260200191505060405180910390f35b61081b6114cc565b005b34801561082957600080fd5b50610832611868565b6040518082815260200191505060405180910390f35b34801561085457600080fd5b506108816004803603602081101561086b57600080fd5b810190808035906020019092919050505061186e565b6040518082815260200191505060405180910390f35b61089f611891565b005b3480156108ad57600080fd5b506108b661195a565b604051808d73ffffffffffffffffffffffffffffffffffffffff1673ffffffffffffffffffffffffffffffffffffffff16815260200180602001806020018c81526020018b600281111561090657fe5b60ff1681526020018a81526020018981526020018815151515815260200187151515158152602001806020018681526020018515151515815260200184810384528f818151815260200191508051906020019080838360005b8381101561097a57808201518184015260208101905061095f565b50505050905090810190601f1680156109a75780820380516001836020036101000a031916815260200191505b5084810383528e818151815260200191508051906020019080838360005b838110156109e05780820151818401526020810190506109c5565b50505050905090810190601f168015610a0d5780820380516001836020036101000a031916815260200191505b50848103825287818151815260200191508051906020019060200280838360005b83811015610a49578082015181840152602081019050610a2e565b505050509050019f5050505050505050505050505050505060405180910390f35b6000809054906101000a900473ffffffffffffffffffffffffffffffffffffffff1681565b60025481565b60055481565b600c6020528060005260406000206000915090505481565b600e6020528060005260406000206000915090505481565b60075481565b600a60009054906101000a900460ff1681565b600b81815481101515610af357fe5b906000526020600020016000915054906101000a900473ffffffffffffffffffffffffffffffffffffffff1681565b60006002806002811115610b3257fe5b600a60029054906101000a900460ff166002811115610b4d57fe5b141515610b5957600080fd5b6000600e60003373ffffffffffffffffffffffffffffffffffffffff1673ffffffffffffffffffffffffffffffffffffffff16815260200190815260200160002054111515610ba757600080fd5b6000600d60003373ffffffffffffffffffffffffffffffffffffffff1673ffffffffffffffffffffffffffffffffffffffff1681526020019081526020016000205490506000600e60003373ffffffffffffffffffffffffffffffffffffffff1673ffffffffffffffffffffffffffffffffffffffff16815260200190815260200160002054905060006064600554600e60003373ffffffffffffffffffffffffffffffffffffffff1673ffffffffffffffffffffffffffffffffffffffff1681526020019081526020016000205402811515610c8057fe5b0490506000600a82811515610c9157fe5b0490506000600d60003373ffffffffffffffffffffffffffffffffffffffff1673ffffffffffffffffffffffffffffffffffffffff168152602001908152602001600020819055506000600e60003373ffffffffffffffffffffffffffffffffffffffff1673ffffffffffffffffffffffffffffffffffffffff168152602001908152602001600020819055503373ffffffffffffffffffffffffffffffffffffffff166108fc829081150290604051600060405180830381858888f193505050501515610dee5783600d60003373ffffffffffffffffffffffffffffffffffffffff1673ffffffffffffffffffffffffffffffffffffffff1681526020019081526020016000208190555082600e60003373ffffffffffffffffffffffffffffffffffffffff1673ffffffffffffffffffffffffffffffffffffffff168152602001908152602001600020819055506000955050505050610e96565b610e0381600554611bbe90919063ffffffff16565b6005819055506000600c60003373ffffffffffffffffffffffffffffffffffffffff1673ffffffffffffffffffffffffffffffffffffffff168152602001908152602001600020549050600b60018203815481101515610e5f57fe5b9060005260206000200160006101000a81549073ffffffffffffffffffffffffffffffffffffffff02191690556001965050505050505b5090565b600d6020528060005260406000206000915090505481565b60088054600181600116156101000203166002900480601f016020809104026020016040519081016040528092919081815260200182805460018160011615610100020316600290048015610f485780601f10610f1d57610100808354040283529160200191610f48565b820191906000526020600020905b815481529060010190602001808311610f2b57829003601f168201915b505050505081565b60035481565b6000809054906101000a900473ffffffffffffffffffffffffffffffffffffffff1673ffffffffffffffffffffffffffffffffffffffff163373ffffffffffffffffffffffffffffffffffffffff16141515610fb157600080fd5b81600f81905550610fe0610fd16201518083611c0890919063ffffffff16565b42611c9290919063ffffffff16565b6007819055506011600f5490806001815401808255809150509060018203906000526020600020016000909192909190915055506001601060006101000a81548160ff0219169083151502179055505050565b6060601180548060200260200160405190810160405280929190818152602001828054801561108157602002820191906000526020600020905b81548152602001906001019080831161106d575b5050505050905090565b60065481565b60098054600181600116156101000203166002900480601f0160208091040260200160405190810160405280929190818152602001828054600181600116156101000203166002900480156111275780601f106110fc57610100808354040283529160200191611127565b820191906000526020600020905b81548152906001019060200180831161110a57829003601f168201915b505050505081565b600f54600454101580156111465750600254600454105b1561115957611153611d1c565b506111f9565b600254600454101515611198576002600a60026101000a81548160ff0219169083600281111561118557fe5b0217905550611192611e7d565b506111f8565b600f54600454111580156111ad575060075442115b156111f7576001600a60026101000a81548160ff021916908360028111156111d157fe5b0217905550600a60009054906101000a900460ff1615156111f6576111f4611fdd565b505b5b5b5b42600381905550565b600a60019054906101000a900460ff1681565b6000600180600281111561122557fe5b600a60029054906101000a900460ff16600281111561124057fe5b14151561124c57600080fd5b6000600d60003373ffffffffffffffffffffffffffffffffffffffff1673ffffffffffffffffffffffffffffffffffffffff1681526020019081526020016000205411151561129a57600080fd5b6000600d60003373ffffffffffffffffffffffffffffffffffffffff1673ffffffffffffffffffffffffffffffffffffffff1681526020019081526020016000205490506000600d60003373ffffffffffffffffffffffffffffffffffffffff1673ffffffffffffffffffffffffffffffffffffffff168152602001908152602001600020819055503373ffffffffffffffffffffffffffffffffffffffff166108fc829081150290604051600060405180830381858888f1935050505015156113ac5780600d60003373ffffffffffffffffffffffffffffffffffffffff1673ffffffffffffffffffffffffffffffffffffffff168152602001908152602001600020819055506000925050611496565b6000600e60003373ffffffffffffffffffffffffffffffffffffffff1673ffffffffffffffffffffffffffffffffffffffff1681526020019081526020016000208190555061140681600454611bbe90919063ffffffff16565b6004819055506000600c60003373ffffffffffffffffffffffffffffffffffffffff1673ffffffffffffffffffffffffffffffffffffffff168152602001908152602001600020549050600b6001820381548110151561146257fe5b9060005260206000200160006101000a81549073ffffffffffffffffffffffffffffffffffffffff02191690556001935050505b5090565b600f5481565b601060009054906101000a900460ff1681565b600a60029054906101000a900460ff1681565b60045481565b60008060028111156114da57fe5b600a60029054906101000a900460ff1660028111156114f557fe5b14151561150157600080fd5b6000809054906101000a900473ffffffffffffffffffffffffffffffffffffffff1673ffffffffffffffffffffffffffffffffffffffff163373ffffffffffffffffffffffffffffffffffffffff161415151561155d57600080fd5b6115af34600d60003373ffffffffffffffffffffffffffffffffffffffff1673ffffffffffffffffffffffffffffffffffffffff16815260200190815260200160002054611c9290919063ffffffff16565b600d60003373ffffffffffffffffffffffffffffffffffffffff1673ffffffffffffffffffffffffffffffffffffffff1681526020019081526020016000208190555060006001600b805490500190506000600c60003373ffffffffffffffffffffffffffffffffffffffff1673ffffffffffffffffffffffffffffffffffffffff1681526020019081526020016000205414156116f25780600c60003373ffffffffffffffffffffffffffffffffffffffff1673ffffffffffffffffffffffffffffffffffffffff16815260200190815260200160002081905550600b3390806001815401808255809150509060018203906000526020600020016000909192909190916101000a81548173ffffffffffffffffffffffffffffffffffffffff021916908373ffffffffffffffffffffffffffffffffffffffff160217905550505b600a60009054906101000a900460ff16156117cc57600061271034029050600a60056002548381151561172157fe5b040181151561172c57fe5b04600681905550611787600654600e60003373ffffffffffffffffffffffffffffffffffffffff1673ffffffffffffffffffffffffffffffffffffffff16815260200190815260200160002054611c9290919063ffffffff16565b600e60003373ffffffffffffffffffffffffffffffffffffffff1673ffffffffffffffffffffffffffffffffffffffff16815260200190815260200160002081905550505b6117e134600454611c9290919063ffffffff16565b6004819055507f5cdc4ab8d637538ead6cc1904d4160343656c8c82bd266635cfd31ac008fffe03334600454604051808473ffffffffffffffffffffffffffffffffffffffff1673ffffffffffffffffffffffffffffffffffffffff168152602001838152602001828152602001935050505060405180910390a161186461112f565b5050565b60015481565b60118181548110151561187d57fe5b906000526020600020016000915090505481565b600280600281111561189f57fe5b600a60029054906101000a900460ff1660028111156118ba57fe5b1415156118c657600080fd5b6000809054906101000a900473ffffffffffffffffffffffffffffffffffffffff1673ffffffffffffffffffffffffffffffffffffffff163373ffffffffffffffffffffffffffffffffffffffff1614151561192157600080fd5b61193634600554611c9290919063ffffffff16565b6005819055506001600a60016101000a81548160ff02191690831515021790555050565b600060608060008060008060008060606000806000809054906101000a900473ffffffffffffffffffffffffffffffffffffffff169b5060088054600181600116156101000203166002900480601f016020809104026020016040519081016040528092919081815260200182805460018160011615610100020316600290048015611a275780601f106119fc57610100808354040283529160200191611a27565b820191906000526020600020905b815481529060010190602001808311611a0a57829003601f168201915b50505050509a5060098054600181600116156101000203166002900480601f016020809104026020016040519081016040528092919081815260200182805460018160011615610100020316600290048015611ac45780601f10611a9957610100808354040283529160200191611ac4565b820191906000526020600020905b815481529060010190602001808311611aa757829003601f168201915b505050505099506007549850600a60029054906101000a900460ff16975060045496506001549550600a60009054906101000a900460ff169450600a60019054906101000a900460ff169350600b805480602002602001604051908101604052809291908181526020018280548015611b9257602002820191906000526020600020905b8160009054906101000a900473ffffffffffffffffffffffffffffffffffffffff1673ffffffffffffffffffffffffffffffffffffffff1681526020019060010190808311611b48575b50505050509250600f549150601060009054906101000a900460ff169050909192939495969798999a9b565b6000611c0083836040805190810160405280601e81526020017f536166654d6174683a207375627472616374696f6e206f766572666c6f770000815250612174565b905092915050565b600080831415611c1b5760009050611c8c565b60008284029050828482811515611c2e57fe5b04141515611c87576040517f08c379a00000000000000000000000000000000000000000000000000000000081526004018080602001828103825260218152602001806122376021913960400191505060405180910390fd5b809150505b92915050565b6000808284019050838110151515611d12576040517f08c379a000000000000000000000000000000000000000000000000000000000815260040180806020018281038252601b8152602001807f536166654d6174683a206164646974696f6e206f766572666c6f77000000000081525060200191505060405180910390fd5b8091505092915050565b6000806004549050611d3b600f54600454611bbe90919063ffffffff16565b6004819055506000809054906101000a900473ffffffffffffffffffffffffffffffffffffffff1673ffffffffffffffffffffffffffffffffffffffff166108fc600f549081150290604051600060405180830381858888f1935050505015611e6d57611db5600f54600254611bbe90919063ffffffff16565b600281905550600254600f819055506000601060006101000a81548160ff0219169083151502179055507f2f256415efc8561af8db667cb242964b19be7380f379ccdafaa0e54a6f6b70696000809054906101000a900473ffffffffffffffffffffffffffffffffffffffff16604051808273ffffffffffffffffffffffffffffffffffffffff1673ffffffffffffffffffffffffffffffffffffffff16815260200191505060405180910390a16001915050611e7a565b8060048190555060009150505b90565b600080600454905060006004819055506000600254905060006002819055506000601060006101000a81548160ff0219169083151502179055506000809054906101000a900473ffffffffffffffffffffffffffffffffffffffff1673ffffffffffffffffffffffffffffffffffffffff166108fc839081150290604051600060405180830381858888f1935050505015611fa1577f2f256415efc8561af8db667cb242964b19be7380f379ccdafaa0e54a6f6b70696000809054906101000a900473ffffffffffffffffffffffffffffffffffffffff16604051808273ffffffffffffffffffffffffffffffffffffffff1673ffffffffffffffffffffffffffffffffffffffff16815260200191505060405180910390a1600192505050611fda565b81600481905550806002819055506002600a60026101000a81548160ff02191690836002811115611fce57fe5b02179055506000925050505b90565b60006001806002811115611fed57fe5b600a60029054906101000a900460ff16600281111561200857fe5b14151561201457600080fd5b6000600454905060006004819055506000600254905060006002819055506000601060006101000a81548160ff0219169083151502179055506000809054906101000a900473ffffffffffffffffffffffffffffffffffffffff1673ffffffffffffffffffffffffffffffffffffffff166108fc839081150290604051600060405180830381858888f1935050505015612137577f2f256415efc8561af8db667cb242964b19be7380f379ccdafaa0e54a6f6b70696000809054906101000a900473ffffffffffffffffffffffffffffffffffffffff16604051808273ffffffffffffffffffffffffffffffffffffffff1673ffffffffffffffffffffffffffffffffffffffff16815260200191505060405180910390a1600193505050612170565b81600481905550806002819055506001600a60026101000a81548160ff0219169083600281111561216457fe5b02179055506000935050505b5090565b60008383111582901515612223576040517f08c379a00000000000000000000000000000000000000000000000000000000081526004018080602001828103825283818151815260200191508051906020019080838360005b838110156121e85780820151818401526020810190506121cd565b50505050905090810190601f1680156122155780820380516001836020036101000a031916815260200191505b509250505060405180910390fd5b506000838503905080915050939250505056fe536166654d6174683a206d756c7469706c69636174696f6e206f766572666c6f77a165627a7a72305820e605672cb40918150e36b90bc97675dccd8f7016763b14dc7276b3999da0d7de0029",
  "source": "// We will be using Solidity version 0.5.4\npragma solidity 0.5.4;\n// Importing OpenZeppelin's SafeMath Implementation\nimport './SafeMath.sol';\n\n\ncontract Crowdfunding {\n    using SafeMath for uint256;\n\n    // List of existing projects\n    Project[] private projects;\n\n    // Event that will be emitted whenever a new project is started\n    event ProjectStarted(\n        address contractAddress,\n        address projectStarter,\n        string projectTitle,\n        string projectDesc,\n        uint256 deadline,\n        uint256 goalAmount,\n        bool reward,\n        uint256 milestone\n    );\n\n    /** @dev Function to start a new project.\n      * @param title Title of the project to be created\n      * @param description Brief description about the project\n      * @param durationInDays Project deadline in days\n      * @param amountToRaise Project goal in wei\n      */\n    function startProject(\n        string calldata title,\n        string calldata  description,\n        uint durationInDays,\n        uint256 amountToRaise,\n        bool reward,\n        uint256 milestone\n    ) external {\n        uint raiseUntil = now.add(durationInDays.mul(1 days));\n        Project newProject = new Project(msg.sender, title, description, raiseUntil, amountToRaise,reward,milestone);\n        projects.push(newProject);\n        emit ProjectStarted(\n            address(newProject),\n            msg.sender,\n            title,\n            description,\n            raiseUntil,\n            amountToRaise,\n            reward,\n            milestone\n        );\n    }                                                                                                                                   \n\n    /** @dev Function to get all projects' contract addresses.\n      * @return A list of all projects' contract addreses\n      */\n    function returnAllProjects() external view returns(Project[] memory){\n        return projects;\n    }\n}\n\n\ncontract Project {\n    using SafeMath for uint256;\n    \n    // Data structures\n    enum State {\n        Fundraising,\n        Expired,\n        Successful\n    }\n\n    // State variables\n    address payable public creator;\n    uint256 public orggoalammount;\n    uint256 public amountGoal; // required to reach at least this much, else everyone gets refund\n    uint public completeAt;\n    uint256 public currentBalance;\n    uint256 public donateBalance;\n    uint public percent;\n    uint public raiseBy;\n    string public title;\n    string public description;\n    bool public rewardbased;\n    bool public rewardstatus;\n    State public state = State.Fundraising; // initialize on create\n    address[] public contributors;\n    mapping (address => uint) public indexes;\n    mapping (address => uint) public contributions;\n    mapping (address => uint) public contributions_percentage;\n    uint256 public currentmilestone;\n    bool public milestonestatus;\n    uint[] public listofmilestones;\n\n    // Event that will be emitted whenever funding will be received\n    event FundingReceived(address contributor, uint amount, uint currentTotal);\n    // Event that will be emitted whenever the project starter has received the funds\n    event CreatorPaid(address recipient);\n\n    // Modifier to check current state\n    modifier inState(State _state) {\n        require(state == _state);\n        _;\n    }\n\n    // Modifier to check if the function caller is the project creator\n    modifier isCreator() {\n        require(msg.sender == creator);\n        _;\n    }\n\n    constructor\n    (\n        address payable projectStarter,\n        string memory projectTitle,\n        string memory projectDesc,\n        uint fundRaisingDeadline,\n        uint256 goalAmount,\n        bool reward,\n        uint256 milestone\n    ) public {\n        creator = projectStarter;\n        title = projectTitle;\n        description = projectDesc;\n        amountGoal = goalAmount;\n        orggoalammount=goalAmount;\n        raiseBy = fundRaisingDeadline;\n        currentBalance = 0;\n        rewardbased=reward;\n        rewardstatus=false;\n        currentmilestone=milestone;\n        milestonestatus=true;\n        listofmilestones.push(milestone);\n    }\n    \n    /** @dev Function to fund a certain project. \n      */\n    function contribute() external inState(State.Fundraising) payable {\n        require(msg.sender != creator);\n        contributions[msg.sender] = contributions[msg.sender].add(msg.value);\n        uint id =contributors.length+1;\n        if(indexes[msg.sender]==0){\n        indexes[msg.sender] = id;\n        contributors.push(msg.sender);}\n        // contribution percentages for reward based project\n        if(rewardbased) {\n        uint _numerator  = msg.value * 10 ** (4);\n        percent =  ((_numerator / amountGoal)+5) / 10;\n        contributions_percentage[msg.sender]=contributions_percentage[msg.sender].add(percent);\n        }\n        \n        currentBalance = currentBalance.add(msg.value);\n        emit FundingReceived(msg.sender, msg.value, currentBalance);\n        checkIfFundingCompleteOrExpired();\n    }\n    \n    function donate() external inState(State.Successful) payable {\n        require(msg.sender == creator);\n        donateBalance = donateBalance.add(msg.value);\n        rewardstatus=true;\n    }\n\n    /** @dev Function to change the project state depending on conditions.\n      */\n    function checkIfFundingCompleteOrExpired() public {\n        if (currentBalance >= currentmilestone && currentBalance<amountGoal) {\n            payOut();\n        } else if (currentBalance >= amountGoal)  {\n            state = State.Successful;\n            payOut1();\n        } else if (currentBalance <= currentmilestone && now > raiseBy)  {\n            state = State.Expired;\n            if(!rewardbased) payOut2();\n        }\n        completeAt = now;\n    }\n    \n    function updateMilestone(uint256 val,uint256 dat) external  {\n        require(msg.sender == creator);\n        currentmilestone = val;\n        raiseBy = now.add(dat.mul(1 days)); \n        listofmilestones.push(currentmilestone);\n        milestonestatus=true;\n    }\n\n    /** @dev Function to give the received funds to project starter.\n      */\n    function payOut() internal returns (bool) {\n        uint256 totalRaised = currentBalance;\n        currentBalance = currentBalance.sub(currentmilestone);\n\n        if (creator.send(currentmilestone)) {\n            amountGoal=amountGoal.sub(currentmilestone);\n            currentmilestone=amountGoal;\n            milestonestatus=false;\n            emit CreatorPaid(creator);\n            return true;\n        } else {\n            currentBalance = totalRaised;\n        }\n\n        return false;\n    }\n    \n    function payOut1() internal returns (bool) {\n        uint256 totalRaised = currentBalance;\n        currentBalance=0;\n        uint256 totalamount=amountGoal;\n        amountGoal=0;\n        milestonestatus=false;\n        if (creator.send(totalRaised)) {\n            emit CreatorPaid(creator);\n            return true;\n        } else {\n            currentBalance = totalRaised;\n            amountGoal=totalamount;\n            state = State.Successful;\n        }\n\n        return false;\n    }\n    \n    function payOut2() internal inState(State.Expired) returns (bool) {\n        uint256 totalRaised = currentBalance;\n        currentBalance = 0;\n        uint256 totalamount=amountGoal;\n        amountGoal=0;\n        milestonestatus=false;\n        if (creator.send(totalRaised)) {\n            emit CreatorPaid(creator);\n            return true;\n        } else {\n            currentBalance = totalRaised;\n            amountGoal=totalamount;\n            state = State.Expired;\n        }\n\n        return false;\n    }\n    \n    /** @dev Function to retrieve donated amount when a project expires.\n      */\n    function getRefund() public inState(State.Expired) returns (bool) {\n        require(contributions[msg.sender] > 0);\n        \n        uint amountToRefund = contributions[msg.sender];\n        contributions[msg.sender] = 0;\n        \n\n        if (!msg.sender.send(amountToRefund)) {\n            contributions[msg.sender] = amountToRefund;\n            return false;\n        } else {\n            contributions_percentage[msg.sender]=0;\n            currentBalance = currentBalance.sub(amountToRefund);\n        }\n        uint id = indexes[msg.sender];\n        delete contributors[id-1];\n        return true;\n    }\n   \n    \n     function getReward() public inState(State.Successful) returns (bool) {\n        require(contributions_percentage[msg.sender] > 0);\n        \n        uint amountToRefund = contributions[msg.sender];\n        uint amountPercent=contributions_percentage[msg.sender];\n        uint money = (contributions_percentage[msg.sender]*donateBalance) /100;\n\n        uint amountToReward = money/10;\n        contributions[msg.sender] = 0;\n        contributions_percentage[msg.sender]=0;\n\n        if (!msg.sender.send(amountToReward)) {\n            contributions[msg.sender] = amountToRefund;\n            contributions_percentage[msg.sender] = amountPercent;\n            return false;\n        } else {\n            donateBalance = donateBalance.sub(amountToReward);\n        }\n        uint id = indexes[msg.sender];\n        delete contributors[id-1];\n\n        return true;\n    }\n\n    /** @dev Function to get specific information about the project.\n      * @return Returns all the project's details\n      */\n      \n    function getMilestones() public view returns (uint[] memory arrmilestones) {\n        return listofmilestones;\n    }  \n    \n    function getDetails() public view returns \n    (\n        address payable projectStarter,\n        string memory projectTitle,\n        string memory projectDesc,\n        uint256 deadline,\n        State currentState,\n        uint256 currentAmount,\n        uint256 goalAmount,\n        bool reward,\n        bool rewardstate,\n        address[] memory contributers,\n        uint256 milestonevalue,\n        bool milestonestate\n        \n    ) {\n        projectStarter = creator;\n        projectTitle = title;\n        projectDesc = description;\n        deadline = raiseBy;\n        currentState = state;\n        currentAmount = currentBalance;\n        goalAmount = orggoalammount;\n        reward=rewardbased;\n        rewardstate=rewardstatus;\n        contributers=contributors;\n        milestonevalue=currentmilestone;\n        milestonestate=milestonestatus;\n    }\n}\n",
  "sourcePath": "/home/jayarap/Desktop/testtruffle/contracts/Crowdfunding.sol",
  "compiler": {
    "name": "solc",
    "version": "0.5.4+commit.9549d8ff.Emscripten.clang"
  },
  "schemaVersion": "3.1.0",
  "updatedAt": "2020-08-29T04:37:47.573Z",
  "devdoc": {
    "methods": {
      "checkIfFundingCompleteOrExpired()": {
        "details": "Function to change the project state depending on conditions."
      },
      "contribute()": {
        "details": "Function to fund a certain project. "
      },
      "getMilestones()": {
        "details": "Function to get specific information about the project.",
        "return": "Returns all the project's details"
      },
      "getRefund()": {
        "details": "Function to retrieve donated amount when a project expires."
      }
    }
  },
  "userdoc": {
    "methods": {}
  }
}